{
  "abi": [
    {
      "inputs": [],
      "stateMutability": "nonpayable",
      "type": "constructor"
    },
    {
      "inputs": [
        {
          "internalType": "address",
          "name": "",
          "type": "address"
        }
      ],
      "name": "addrAmount",
      "outputs": [
        {
          "internalType": "uint256",
          "name": "",
          "type": "uint256"
        }
      ],
      "stateMutability": "view",
      "type": "function"
    },
    {
      "inputs": [],
      "name": "deposit",
      "outputs": [],
      "stateMutability": "payable",
      "type": "function"
    },
    {
      "inputs": [
        {
          "internalType": "uint256",
          "name": "amount",
          "type": "uint256"
        }
      ],
      "name": "withdraw",
      "outputs": [],
      "stateMutability": "nonpayable",
      "type": "function"
    }
  ],
  "bytecode": {
    "object": "0x608060405234801561001057600080fd5b50610238806100206000396000f3fe6080604052600436106100345760003560e01c8063247105fb146100395780632e1a7d4d14610078578063d0e30db01461009a575b600080fd5b34801561004557600080fd5b50610066610054366004610177565b60006020819052908152604090205481565b60405190815260200160405180910390f35b34801561008457600080fd5b506100986100933660046101a7565b6100a2565b005b610098610151565b336000908152602081905260409020548111156100fc5760405162461bcd60e51b8152602060048201526014602482015273496e73756666696369656e742062616c616e636560601b604482015260640160405180910390fd5b336000908152602081905260408120805483929061011b9084906101d6565b9091555050604051339082156108fc029083906000818181858888f1935050505015801561014d573d6000803e3d6000fd5b5050565b33600090815260208190526040812080543492906101709084906101ef565b9091555050565b60006020828403121561018957600080fd5b81356001600160a01b03811681146101a057600080fd5b9392505050565b6000602082840312156101b957600080fd5b5035919050565b634e487b7160e01b600052601160045260246000fd5b818103818111156101e9576101e96101c0565b92915050565b808201808211156101e9576101e96101c056fea26469706673582212205291326e8f256db6027d3a9d5178dec473070001699d298a6e7510dd673b3e0964736f6c63430008130033",
    "linkReferences": {}
  },
  "methodIdentifiers": {
    "addrAmount(address)": "247105fb",
    "deposit()": "d0e30db0",
    "withdraw(uint256)": "2e1a7d4d"
  },
  "id": 15
}